:100000000BC1000025C1000023C1000021C1000078
:100010001FC100001DC100001BC1000019C100006C
:1000200017C1000015C1000013C100008DC70000FA
:100030000C944B080DC100000BC1000009C1000069
:1000400007C1000005C1000003C1000001C100009C
:10005000FFC00000FDC00000FBC00000A3C1000005
:10006000F7C00000F5C00000F3C00000F1C00000C0
:10007000EFC00000EDC00000EBC00000E9C00000D0
:10008000E7C00000E5C00000E3C00000E1C00000E0
:10009000DFC00000DDC000000D0A5354454D54651B
:1000A0007261204272656164626F617264204661B0
:1000B00063746F727920546573742E0D0A41544D28
:1000C0004547413136753220000D0A446576696333
:1000D000652049443A200053657269616C204E6F77
:1000E0003A200020213D2000544553542000204652
:1000F00041494C454421000D0A5741524E494E4753
:1001000021212120546869732041544D45474131D4
:10011000365532204641494C4544206F6E65206F6C
:1001200072206D756C7469706C652074657374737E
:100130002E205741524E494E472121210D0A0D0ACA
:10014000000D0A426F617264205041535345442EA2
:100150000D0A0050206F7220004F6B2E0D0A0030E8
:10016000313233343536373839414243444546120B
:10017000011001020000084123430001000102DCDC
:100180000109023E00020100C03209040000010220
:1001900002010005240001100424020605240600C3
:1001A00001070582030800FF09040100020A00009C
:1001B0000007050402400001070583024000010416
:1001C0000309043203410072006400750069006E87
:1001D000006F00200028007700770077002E006174
:1001E0000072006400750069006E006F002E0063ED
:1001F000006300290000001E0341007200640075C6
:100200000069006E006F00200055006E006F002036
:10021000005200330000000011241FBECFEFD4E0D5
:10022000DEBFCDBF11E0A0E0B1E0EAE0F7E102C03F
:1002300005900D92AC31B107D9F712E0ACE1B1E015
:1002400001C01D92AE33B107E1F716D40C94830BB5
:10025000D7CEFC01E058FF4FA081B1816C93A08103
:10026000B1819D012F5F3F4F318320832E173F07C0
:1002700021F412969C938E9311972FB7F894FC015A
:10028000EC57FF4F80818F5F80832FBF08959C01C3
:10029000DC01AE57BF4FED91FC9111978191119602
:1002A000FC93EE93A90140585F4FE417F50719F44A
:1002B00011963C932E934FB7F894F901EC57FF4FEA
:1002C0009081915090834FBF08952FB7F894FC010F
:1002D00080812FBF089580E091E00C948C0A80E02B
:1002E00091E00C94200A1F93CF93DF93EC01EC89EB
:1002F000E150E23028F4F0E0E75EFE4F108101C0EB
:1003000010E08B89823009F418608D89873031F0D4
:10031000883031F0863029F4126003C0146001C0C7
:1003200016601092C9001092C8001092CA002F8562
:10033000388949895A89203081EE380780E048079A
:1003400080E0580779F0CA01B901969587957795AD
:10035000679560587B47814E9F4F0E94580B2150F4
:10036000304002C020E130E03093CD002093CC003B
:100370001093CA008F859889A989BA89803021EEA7
:10038000920720E0A20720E0B20711F480E001C04C
:1003900082E08093C80088E98093C900DF91CF9103
:1003A0001F9108951F920F920FB60F9211242F9351
:1003B0003F934F935F936F937F938F939F93AF93ED
:1003C000BF93EF93FF936091CE008EB3843019F406
:1003D00088E291E03EDFFF91EF91BF91AF919F9155
:1003E0008F917F916F915F914F913F912F910F90DE
:1003F0000FBE0F901F901895FC01858580FF02C0ED
:100400005F9808955F9A08958FEF85B99CEC94B931
:1004100088B990E697B98BB908951F9384B7877F01
:1004200084BF18E10FB6F89410936000109260003A
:100430000FBEEADF87E690E09093CD008093CC007A
:1004400086E08093CA001092C8001093C900539AA6
:100450005A9A8AB180638AB98BB180638BB969D5A6
:1004600084E085BD5F9A579A1F910895EF92FF929D
:100470000F931F93CF93DF938C010E947A0BC0E000
:10048000D0E0E82EFF240BC08EB3843039F4F8019D
:10049000EC0FFD1F649188E291E0DBDE2196CE1522
:1004A000DF0594F3DF91CF911F910F91FF90EF90B3
:1004B0000895FF920F931F93DF93CF930F92CDB7C1
:1004C000DEB7FB01142FF22E8532910541F0883200
:1004D000910539F08B32910531F038E505C032E4F1
:1004E00003C033E401C034E4E332F10541F0E63205
:1004F000F10539F0E932F10531F008E505C002E413
:1005000003C003E401C004E48EB3843031F488E214
:1005100091E060E539839DDE39818EB3843021F42A
:1005200088E291E0632F95DE8EB3843029F4612F49
:10053000605D88E291E08DDE84E591E097DF8EB327
:10054000843021F488E291E060E583DE8EB384306C
:1005500021F488E291E0602F7CDE8EB3843029F4B0
:100560006F2D605D88E291E074DE8EEE90E07EDFBC
:100570008EB3843041F488E291E06DE06ADE88E277
:1005800091E06AE066DE8CEA91E09FDE182F08C0F9
:1005900088E291E07CDE682F80E091E0F6D7115090
:1005A0001123B1F70F90CF91DF911F910F91FF9021
:1005B0000895BF92CF92DF92EF92FF920F931F9315
:1005C000CF93DF93EC01D62E7A01B22E88EE90E025
:1005D0004DDF8EB3843031F460911F01605D88E29D
:1005E00091E037DE8EB3843021F488E291E060E25E
:1005F00030DE8EB3843021F488E291E06DE229DEB2
:100600008EB3843021F488E291E060E222DEFE01C4
:10061000C2908F01308181E090E00D2C02C0880FE4
:10062000991F0A94E2F7282F382B30838881822B78
:1006300088838FE99FE00197F1F700C00000F70180
:10064000808190E00B2C02C0959587950A94E2F783
:1006500080FF19C09881822F8095892388838FE934
:100660009FE00197F1F700C00000808190E00B2C23
:1006700002C0959587950A94E2F780FD04C089E54C
:1006800091E0F4DE08C081E080931D01CE01B70146
:100690004D2D2B2D0EDFF801C082DF91CF911F91E0
:1006A0000F91FF90EF90DF90CF90BF900895BF9291
:1006B000CF92DF92EF92FF920F931F93DF93CF932E
:1006C00000D00F92CDB7DEB7DE011196E6E1F1E082
:1006D00083E001900D928150E1F780911D01882304
:1006E00039F18091210190912201A0912301B091D3
:1006F00024010196A11DB11D809321019093220137
:10070000A0932301B0932401883823E1920720E0CD
:10071000A20720E0B20764F08BB190E389278BB980
:1007200010922101109222011092230110922401B3
:1007300080911E01882339F180912101909122013D
:10074000A0912301B09124010196A11DB11D8093B8
:10075000210190932201A0932301B09324018035BD
:1007600023EC920720E0A20720E0B20764F08BB1EF
:1007700090E389278BB910922101109222011092E7
:1007800023011092240180911C01882309F0CEC01E
:1007900099B186B196FDCAC087FDC8C085B198E001
:1007A000892785B98FEF96E7A1E081509040A0405E
:1007B000E1F700C0000099B186B196FD13C087FD36
:1007C00011C099B186B196FD02C087FFFACF109291
:1007D000200110921F0181E080931C0110921E01E4
:1007E00010921D0188E990E041DE87ED90E03EDE49
:1007F00000E010E091E2D92EF8013E96D092570029
:10080000E4908EB38430A9F4EE2DF0E0EF70F07038
:10081000E15AFE4F649188E291E01BDDE2948FE0A3
:10082000E822EE2DF0E0E15AFE4F649188E291E07B
:1008300010DD0F5F1F4F0A301105F1F689EC90E0D3
:1008400015DE00E010E0B1E2CB2E7E010894E11C41
:10085000F11CF801EE0FFF1FC0925700D490802FBB
:100860008F77D701A80FB11DBC90DB1409F436C0F7
:1008700081E080931D018EEE90E0F8DD88E291E04A
:1008800060E2E7DCED2DE295EF70F0E0E15AFE4F1B
:10089000649188E291E0DDDCED2DF0E0EF70F07026
:1008A000E15AFE4F649188E291E0D3DC83EE90E060
:1008B000DDDDEB2DE295EF70F0E0E15AFE4F649143
:1008C00088E291E0C6DCEB2DF0E0EF70F070E15AC9
:1008D000FE4F649188E291E0BCDC1DC08EB3843091
:1008E000A1F4ED2DE295EF70F0E0E15AFE4F649136
:1008F00088E291E0AEDCED2DF0E0EF70F070E15AAF
:10090000FE4F649188E291E0A4DC0F5F1F4F03303B
:10091000110509F09ECF8EB3843041F488E291E056
:100920006DE097DC88E291E06AE093DC80911C0145
:10093000882309F494C080911F01909120010196B1
:100940009093200180931F018530910509F446C0E2
:10095000863091059CF48230910571F183309105C8
:100960002CF48130910509F074C01FC083309105CB
:1009700049F18430910509F06CC02AC08830910596
:1009800009F441C08930910544F48630910569F13C
:100990008730910509F05DC02FC089309105D1F1F4
:1009A0008A30910509F055C03DC085E290E067E0CE
:1009B00043E250E025E034C085E290E066E043E2A7
:1009C00050E018C085E290E063E043E250E020C0D0
:1009D00085E290E062E043E250E021C088E290E0EE
:1009E00067E049E250E026E01BC088E290E066E064
:1009F00046E250E024E014C088E290E065E046E280
:100A000050E022E00DC08BE290E065E049E250E06A
:100A100021E006C08BE290E064E049E250E020E093
:100A2000C8DD1DC080911D01882329F481E08093D9
:100A30001E016EEF01C06DEF8DEA91E00ADC8FEFD1
:100A400091EEA4E081509040A040E1F700C000008A
:100A500006C01092200110921F0110921C010F90ED
:100A60000F900F90CF91DF911F910F91FF90EF901A
:100A7000DF90CF90BF9008950F931F93CEDC2FB7D8
:100A8000F8948DEA91E090932E0280932D0290933A
:100A9000300280932F022FBF2FB7F89488E291E0A5
:100AA0009093A9018093A8019093AB018093AA0130
:100AB0002FBF789403E081E392E007DC803849F0AF
:100AC00080E091E0C9D5BC0197FD03C08DEA91E0BB
:100AD000C0DB8CEA91E0F9DB182FA89902C08136BF
:100AE00078F1A89A8091AC01882361F05D98009319
:100AF000250108C088E291E0CADB682F80E091E020
:100B000044D511501123B1F780912501882351F06C
:100B100080912501815080932501809125018823B2
:100B200009F45D9A80912601882351F08091260175
:100B300081508093260180912601882309F45C9AD4
:100B400081E392E0C2DB882361F08DEA91E09FDBD4
:100B50009091C80095FFFCCF8093CE005C980093E5
:100B6000260180E091E069D539D4A1DDA4CF92308F
:100B700029F0933041F09130F9F419C02EE330E0C0
:100B8000E1E8F1E01DC0813049F0813018F0823099
:100B900099F408C0EFEBF1E0249107C0E3ECF1E039
:100BA000249103C0E7EFF1E0249130E009C022E195
:100BB00030E0EFE6F1E004C020E030E0E0E0F0E01B
:100BC000DA011196FC93EE93C901089528E030E014
:100BD00040E003C04F5F220F331F28173907D0F3BF
:100BE000842F8295807F08958093E900EBEEF0E0FA
:100BF000808181608083EDEEF0E010826093EC00F4
:100C000040838091EE00881F8827881F08951092E6
:100C1000F40080E08093E9001092F0001092E80068
:100C20001092ED009091EB009E7F9093EB008F5F10
:100C3000853081F708958091360287FF11C003C087
:100C40008EB38823B1F08091E80082FFF9CF8091C4
:100C5000E8008B778093E80008958EB3882349F0ED
:100C60008091E80080FFF9CF8091E8008E77809333
:100C7000E800089584E69091EC0090FF05C0909103
:100C8000E80090FF05C01BC09091E80092FD17C0DE
:100C90009EB39923B1F09EB39530A9F09091EB00EB
:100CA00095FD13C09091E10092FFE5CF9091E10096
:100CB0009B7F9093E100882351F08150DCCF80E04E
:100CC000089582E0089583E0089581E0089584E026
:100CD0000895282F392FF90180913C0290913D020F
:100CE0008617970718F4BC0190E032C061157105B2
:100CF000D9F78091E8008E778093E800F5CF809156
:100D0000E80083FD37C08091E80082FD2DC08EB3DE
:100D10008823A1F18EB3853079F18091E80080FFBE
:100D200017C08091F20006C091919093F10061503C
:100D300070408F5F6115710511F08830A8F391E064
:100D4000883009F090E08091E8008E778093E80089
:100D500061157105A1F6992391F606C08EB388231B
:100D600069F08EB3853061F08091E80082FFF6CFA4
:100D700080E0089581E0089583E0089582E0089579
:100D800083E00895282F392FC90120913C0230912A
:100D90003D022617370718F4B90130E034C0611559
:100DA0007105D9F72091E8002E772093E800F5CF60
:100DB0002091E80023FD39C02091E80022FD2FC0DA
:100DC0002EB32223B1F12EB3253089F12091E80012
:100DD00020FF19C02091F20008C0FC010196E491A7
:100DE000E093F100615070402F5F6115710511F0C3
:100DF000283098F331E0283009F030E02091E80005
:100E00002E772093E8006115710591F6332381F662
:100E100006C08EB3882369F08EB3853061F080916F
:100E2000E80082FFF6CF80E0089581E0089583E036
:100E3000089582E0089583E008956115710519F51C
:100E40001DC02091E80023FD2EC02EB3222379F18E
:100E50002EB3253051F12091E80022FFF2CFE82F88
:100E6000F92F07C08091F1008193CF01615070404C
:100E700029F0CF012091F2002223A1F72091E80070
:100E80002B772093E80061157105D9F606C08EB363
:100E9000882369F08EB3853061F08091E80080FF8F
:100EA000F6CF80E0089581E0089583E0089582E020
:100EB000089583E0089542D044D01EBA10923402BF
:100EC000109233021092320284E089BD89B58260AB
:100ED00089BD09B400FEFDCF8091D800982F9F777F
:100EE0009093D80080688093D800809163008E7FB3
:100EF000809363008091D8008F7D8093D80080918B
:100F0000E0008E7F8093E0008091E1008E7F8093EF
:100F1000E1008091E20081608093E2008091E10035
:100F2000877F8093E1008091E20088608093E200F7
:100F30000895C1DF81E08093350208951092E200A8
:100F400008951092E10008951F920F920FB60F922C
:100F500011242F933F934F935F936F937F938F93BE
:100F60009F93AF93BF93EF93FF938091E10080FF36
:100F70001BC08091E20080FF17C08091E1008E7F4E
:100F80008093E1008091E2008E7F8093E200809167
:100F9000E20080618093E2008091D80080628093BB
:100FA000D80019BC1EBA19D28091E10084FF29C073
:100FB0008091E20084FF25C084E089BD89B582600C
:100FC00089BD09B400FEFDCF8091D8008F7D80934C
:100FD000D8008091E1008F7E8093E1008091E20053
:100FE0008F7E8093E2008091E20081608093E20036
:100FF00080913402882311F084E001C081E08EBB2F
:10100000ECD18091E10083FF27C08091E20083FF53
:1010100023C08091E100877F8093E10082E08EBB56
:10102000109234028091E1008E7F8093E1008091E4
:10103000E2008E7F8093E2008091E20080618093E5
:10104000E200E5DD80E060E042E0CEDD8091F0008E
:1010500088608093F000C1D18091E10082FF0AC0D6
:101060008091E20082FF06C08091E1008B7F809337
:10107000E100B3D1FF91EF91BF91AF919F918F911B
:101080007F916F915F914F913F912F910F900FBE84
:101090000F901F9018951F920F920FB60F92112468
:1010A000EF92FF920F931F932F933F934F935F9372
:1010B0006F937F938F939F93AF93BF93EF93FF9320
:1010C000DF93CF930F92CDB7DEB789EEE82EF12CE8
:1010D000F70180818770108200EF10E0F8019081A5
:1010E000977F90837894898322D0F894F7011082B7
:1010F000F8019081986090838981F70180830F9037
:10110000CF91DF91FF91EF91BF91AF919F918F911F
:101110007F916F915F914F913F912F911F910F910F
:10112000FF90EF900F900FBE0F901F9018951F9398
:10113000DF93CF93CDB7DEB7AC970FB6F894DEBF91
:101140000FBECDBFE6E3F2E08091F100819322E093
:10115000EE33F207C9F7809136022091370225302D
:1011600009F484C0263040F42130A1F1213070F020
:10117000233009F018C12EC0283009F4E9C0293005
:1011800009F4F8C0263009F00EC18EC0803821F075
:10119000823809F008C108C0809132029091330270
:1011A000992371F082600CC080913A02877080931D
:1011B000E9009091EB0081E095FF80E01092E9005A
:1011C0009091E800977F9093E8008093F10010924F
:1011D000F100C9C0882319F0823009F0E4C090E022
:1011E0008F719070009729F08230910509F0DDC071
:1011F0000BC080913802813009F0D7C0233009F04C
:1012000080E0809333022CC080913802882341F51E
:1012100020913A02277009F4C8C02093E900809118
:10122000EB0080FFC2C080913702833021F48091AF
:10123000EB00806213C08091EB0080618093EB0033
:1012400081E090E002C0880F991F2A95E2F7809311
:10125000EA001092EA008091EB0088608093EB0036
:101260001092E9008091E800877F80C0882309F010
:101270009AC0109138028091E800877F8093E8003F
:10128000DADC04C08EB3882309F48FC08091E800B3
:1012900080FFF8CF1F7711F083E001C082E08EBBA2
:1012A00010681093E30081C08058823008F07BC042
:1012B000809138029091390223E08C3D920789F5A4
:1012C00083E08C838AE28B833FB7F894DE01159626
:1012D00080E090E02EE041E2E22FF0E04093570002
:1012E000E49180FF03C0E295EF702F5FEF705E2FF7
:1012F000505D5A3308F0595F5C9311961C92119718
:10130000129601968431910539F73FBF8091E8002C
:10131000877F8093E800CE0103966AE270E0D9DC13
:1013200011C060913A02AE014F5F5F4F20DCBC01FB
:101330000097D9F18091E800877F8093E800898148
:101340009A8120DD8091E8008B778093E8002DC0A2
:10135000803849F58091E800877F8093E80080918C
:1013600034028093F1008091E8008E778093E8004A
:1013700062DC1BC08823B9F4909138029230A8F443
:101380008091E800877F8093E8009093340253DCDB
:1013900080913402882311F084E001C083E08EBB89
:1013A0000E946B0102C00E946F018091E80083FFE0
:1013B0000AC08091EB0080628093EB008091E8008E
:1013C000877F8093E800AC960FB6F894DEBF0FBE1F
:1013D000CDBFCF91DF911F91089508951F938EB3D4
:1013E000882361F01091E90017701092E900809154
:1013F000E80083FF01C09BDE1093E9001F91089570
:10140000FF920F931F93DF93CF930F92CDB7DEB769
:10141000182FF42EC9016983D9DB69816295660FA3
:10142000660F607C6F29402F4260482B812FDCDBE8
:101430000F90CF91DF911F910F91FF900895089524
:10144000CF93DF93EC018091E80083FF62C0888135
:1014500090E020913A0230913B022817390709F0B9
:1014600058C080913702813261F0823220F480329C
:1014700009F04FC019C0823271F1833209F049C0BE
:101480003AC080913602813A09F043C08091E80069
:10149000877F8093E800CE010F9667E070E019DC4B
:1014A0008091E8008B7714C080913602813289F5F3
:1014B0008091E800877F8093E800CE010F9667E077
:1014C00070E0BBDCCE010E9473018091E8008E7752
:1014D0008093E8001EC0809136028132D1F4809161
:1014E000E800877F8093E800809138028D87CE01E5
:1014F0000E94FC010DC080913602813251F480912E
:10150000E800877F8093E800CE016091380297DF82
:1015100092DBDF91CF9108950F93CF93DF93EC018E
:101520000D96FC0189E0DF011D928A95E9F72A8179
:101530003B8189819C81992311F004E001C000E086
:1015400062E041E05DDF8130D9F42E813F818D8101
:101550009885992311F004E001C000E062E040E0CA
:101560004FDF813069F42A853B8589859C859923E5
:1015700011F004E001C000E063E041E041DF01C0A0
:1015800080E0DF91CF910F910895DF93CF930F9279
:10159000CDB7DEB7FC018EB38430F1F427853089F6
:1015A000418952892115310541055105A9F08181F3
:1015B0008093E9008091E80085FD0AC08091E800F1
:1015C0008E778093E800698355DB6981882329F44D
:1015D0006093F10080E001C082E00F90CF91DF9135
:1015E0000895FC018EB3843011F527853089418937
:1015F00052892115310541055105C9F0818180933A
:10160000E9008091F2008823A1F09091E800809198
:10161000E8008E778093E80095FD0DC02BDB8823D2
:1016200059F49091E8009E779093E800089582E045
:10163000089580E0089580E008952EB3243059F491
:10164000FC012785308941895289211531054105E1
:10165000510509F0C6CF0895FC018EB3843021F501
:101660002785308941895289211531054105510568
:10167000D9F085818093E9008091E80082FF14C051
:101680008091F200882321F02091F10030E002C027
:101690002FEF3FEF8091F200882341F48091E80022
:1016A0008B778093E80002C02FEF3FEFC9010895C8
:1016B000A1E21A2EAA1BBB1BFD010DC0AA1FBB1F56
:1016C000EE1FFF1FA217B307E407F50720F0A21BC8
:1016D000B30BE40BF50B661F771F881F991F1A9435
:1016E00069F760957095809590959B01AC01BD015F
:1016F000CF010895FC0105900020E9F780959095B1
:0A1700008E0F9F1F0895F894FFCF8D
:10170A00000340000004400000020800000000003E
:0C171A000000000000001E948930200038
:107000004BC0000064C0000062C0000060C000000F
:107010005EC000005CC000005AC0000058C0000004
:1070200056C0000054C0000052C00000BCC40000A4
:107030004EC000004CC000004AC0000048C0000024
:1070400046C0000044C0000042C0000040C0000034
:107050003EC000003CC000003AC0000038C0000044
:1070600036C0000034C0000032C0000030C0000054
:107070002EC000002CC000002AC0000028C0000064
:1070800026C0000024C0000022C0000020C0000074
:107090001EC000001CC0000011241FBECFEFD4E0B2
:1070A000DEBFCDBF11E0A0E0B1E0E4E9FCE702C043
:1070B00005900D92AC35B107D9F711E0ACE5B1E020
:1070C00001C01D92AB37B107E1F743D1E1C598CFBD
:1070D0009BB1982B9BB9089515C09091F20099230C
:1070E00071F49091E8009B7F9093E80003C09EB3F9
:1070F000992351F09091E80092FFF9CF02C090914E
:10710000F1008150882349F7089530916A01209158
:10711000690190916801809167019093610180936A
:107120006201C901909363018093640108952F92D5
:10713000DF93CF9300D000D000D0CDB7DEB78091E1
:107140006501843009F456C0853030F4813059F03F
:10715000833009F0D9C01FC0853009F4A2C0863041
:1071600009F0D2C0C5C080916601823008F0CCC061
:10717000CCDF80916601882361F480916101909158
:10718000620123E0FC0120935700E89507B600FC5C
:10719000FDCF85E008C080916601882311F0823020
:1071A00029F4B3DF89E080930101AEC0813009F09A
:1071B000ABC080E090E0DC01FC012490F22DFF3FA9
:1071C00069F0A093600190936201809361018AE06D
:1071D0008093010185E080935D0196C00196A11D19
:1071E000B11D803020E7920720E0A20720E0B2071F
:1071F00019F78AC080916601833041F581E0809360
:107200005C0180916B0190916C0120916701009766
:1072100061F0213009F078C080916A019091690194
:1072200090935F0180935E016FC0222361F42CE094
:1072300088E190E00FB6F894A895809360000FBEA7
:107240002093600061C0109200015EC0882309F0A5
:107250005BC0809167018F3F09F056C080E090E0ED
:10726000DC0133E025E0FC0130935700E89507B6D8
:1072700000FCFDCF20935700E89507B600FCFDCF3A
:1072800080589F4FAF4FBF4F803040E7940740E09A
:10729000A40740E0B40739F781E180935700E895EF
:1072A00033C0DE011196E5E0F1E083E001900D923C
:1072B0008150E1F7DE011496E2E0F1E083E0019015
:1072C0000D928150E1F780916701909166019923B9
:1072D00029F4FE01E80FF11D818107C09130A1F46E
:1072E000FE01BC97E80FF11D8081809370010CC0F6
:1072F00080916601833041F480916701882321F4F5
:10730000809168018093600126960FB6F894DEBFE5
:107310000FBECDBFCF91DF912F90089584B7877FA7
:1073200084BF88E10FB6F8948093600010926000EB
:107330000FBE81E085BF82E085BF8AB180638AB9D4
:107340008BB180638BB924C30DD381E085BF15BE9B
:107350000895E4DF789401C07CD4809100018823F3
:10736000D9F780915C018823B9F7EEDFE0915E01E7
:10737000F0915F010995EF92FF920F931F93CF93C6
:10738000DF938091790190917A0190936C018093C1
:107390006B0180916D01882359F080916D018150BE
:1073A00080936D0180916D01882311F480E290DE5D
:1073B00080916E01882359F080916E0181508093F5
:1073C0006E0180916E01882311F480E181DE80914D
:1073D0007401833009F48DC1843030F4813071F050
:1073E000823009F0C0C1F7C0853009F4A0C18530F2
:1073F00008F495C1863009F0B6C1A8C15C9883E055
:1074000080936E018091E800877F8093E8008091EF
:107410005C01882339F08BDE80E25ADE80E158DEA1
:1074200010925C0180916B0190916C01009729F49E
:1074300029C02EB3222309F496C12091E80022FF2F
:10744000F8CF2091F10020936501019790936C0192
:1074500080936B01E6E6F1E010C08091F10081932A
:1074600080916B0190916C01019790936C018093D6
:107470006B0181E0EB36F80721F08091F200882360
:1074800061F755DE80910101853009F0A0C080913F
:107490006B0190916C01009721F482E080930101CF
:1074A00096C08AE119DE809161018F7115DE8091AD
:1074B000610190916201C0916301D09164012196B4
:1074C000C81BD90B20916601222309F07CC0D695F8
:1074D000C7959C014091600150E0DA01C90160E06C
:1074E000EE24E39445E0F42E73E03AC0E091F2001C
:1074F000EE2371F4E091E800EB7FE093E80004C034
:10750000EEB3EE2309F42FC1E091E800E2FFF8CFDB
:107510002197E091F1000E2FE091F1001E2FFC0168
:107520000801E0925700E89511246F5F0296A11DB3
:10753000B11D603411F0209799F4F901F0925700D1
:10754000E89507B600FCFDCF209751F0FC01709341
:107550005700E89507B600FCFDCF9C01AD0160E047
:10756000209709F0C3CF80916301909164019093BB
:1075700062018093610181E180935700E89525C005
:107580008091F200882371F48091E8008B7F8093D2
:10759000E80004C08EB3882309F4E5C08091E800B8
:1075A00082FFF8CF6091F1008091610190916201BA
:1075B00061D3809161019091620101969093620183
:1075C0008093610121972097D9F680E185DD809134
:1075D000E8008B7FB8C08091E800877F8093E80047
:1075E0005D9883E080936D0104C08EB3882309F415
:1075F000BAC08091E80080FFF8CF80910101893006
:1076000081F08A3059F480916601813039F490918B
:107610006101809162019093F10090C080917001AE
:107620008DC02091610130916201C0916301D091C0
:1076300064012196C21BD30B80916601882379F5E2
:10764000D695C795C901A0916001B0E01DC02091F9
:10765000F200203271F42091E8002E7F2093E800A0
:1076600004C02EB3222309F47EC02091E80020FF3D
:10767000F8CFFC01259134912093F1003093F10073
:1076800021970296A11DB11D209709F780916301F2
:1076900090916401909362018093610126C08230D1
:1076A00021F521C08091F200803271F48091E800D0
:1076B0008E7F8093E80004C08EB3882309F453C002
:1076C0008091E80080FFF8CF009161011091620184
:1076D000C801C8D28093F1000F5F1F4F1093620161
:1076E0000093610121972097E9F682E080930101E0
:1076F00027C08091E800877F8093E80080915D013A
:107700008093F1001092F1001092F1001092F100BC
:10771000809101018093F1001092F10011C08091DD
:10772000E800877F8093E80010925D011BC0809184
:10773000E800877F8093E800809101018093F10049
:107740008091E8008E7F8093E8000CC08091E80073
:10775000877F8093E80080E2BBDC80E1B9DC82E0D7
:10776000809301014DD0DF91CF911F910F91FF9038
:10777000EF900895923049F0933061F09130C1F06C
:1077800020E030E080E090E017C02BE130E08AE1BB
:1077900091E012C0882331F42091350130E085E377
:1077A00091E00AC02091390130E089E391E004C002
:1077B00022E130E088E091E0FA0191838083C90101
:1077C0000895EBEEF0E0808181608083EDEEF0E0E3
:1077D00010826093EC0040838091EE00881F882720
:1077E000881F08951092F4001092F0001092E800A3
:1077F0001092ED00EBEEF0E080818E7F80830895A3
:107800008091730187FF11C003C08EB38823B1F04C
:107810008091E80082FFF9CF8091E8008B7F809310
:10782000E80008958EB3882349F08091E80080FF36
:10783000F9CF8091E8008E7F8093E8000895282F8B
:10784000392FF9018091790190917A018617970774
:1078500018F4BC0190E032C061157105D9F7809130
:10786000E8008E7F8093E800F5CF8091E80083FDEB
:1078700037C08091E80082FD2DC08EB38823A1F12E
:107880008EB3853079F18091E80080FF17C0809138
:10789000F20006C091919093F100615070408F5FAB
:1078A0006115710511F08032A8F391E0803209F082
:1078B00090E08091E8008E7F8093E800611571056B
:1078C000A1F6992391F606C08EB3882369F08EB392
:1078D000853061F08091E80082FFF6CF80E0089566
:1078E00081E0089583E0089582E0089583E008959B
:1078F00054D056D01EBA1092710184E089BD89B56A
:10790000826089BD09B400FEFDCF8091D800982F18
:107910009F779093D80080688093D800809163000F
:107920008E7F809363008091D8008F7D8093D800F4
:107930008091E0008E7F8093E0008091E1008E7F57
:107940008093E1008091E20081608093E200809169
:10795000E100877F8093E1008091E200886080935E
:10796000E2000895C5DFE0EEF0E080818160808371
:10797000E8EDF0E080818F7780830FD011D019BCC3
:10798000E3E6F0E0808181608083109272010895C7
:10799000AFDF81E08093720108951092E2000895B4
:1079A0001092E10008951F920F920FB60F921124CA
:1079B0002F933F934F935F936F937F938F939F93F7
:1079C000AF93BF93EF93FF938091E10080FF1BC0C3
:1079D0008091E20080FF17C08091E1008E7F80934C
:1079E000E1008091E2008E7F8093E2008091E200CE
:1079F00080618093E2008091D80080628093D800FB
:107A000019BC1EBA25D18091E10084FF29C0809164
:107A1000E20084FF25C084E089BD89B5826089BD0C
:107A200009B400FEFDCF8091D8008F7D8093D800EF
:107A30008091E1008F7E8093E1008091E2008F7E53
:107A40008093E2008091E20081608093E200809167
:107A50007101882311F084E001C081E08EBBF8D071
:107A60008091E10083FF22C08091E20083FF1EC06D
:107A70008091E100877F8093E10082E08EBB1092CD
:107A800071018091E1008E7F8093E1008091E2009E
:107A90008E7F8093E2008091E20080618093E2001B
:107AA000A1DE80E060E042E28CDED2D08091E10095
:107AB00082FF0AC08091E20082FF06C08091E1004F
:107AC0008B7F8093E100C4D0FF91EF91BF91AF9184
:107AD0009F918F917F916F915F914F913F912F91E6
:107AE0000F900FBE0F901F9018951F93DF93CF93A9
:107AF00000D0CDB7DEB7E3E7F1E08091F1008193EC
:107B000081E0EB37F807C9F7809173019091740118
:107B1000953011F1963040F49130B9F0913070F019
:107B2000933009F080C011C0983009F452C09930E8
:107B300009F461C0963009F076C02CC0803809F491
:107B400073C0823809F06FC06FC0882309F46CC01D
:107B5000823009F068C068C0882309F064C01091C1
:107B600075018091E800877F8093E80049DE04C0BA
:107B70008EB3882309F458C08091E80080FFF8CFC5
:107B80001F7711F083E001C082E08EBB1068109374
:107B9000E3004AC08058823008F045C080917501EA
:107BA0009091760160917701AE014F5F5F4FE2DD0A
:107BB000BC010097C9F18091E800877F8093E800BD
:107BC00089819A813CDE8091E8008B7F8093E80078
:107BD0002BC0803841F58091E800877F8093E800D2
:107BE000809171018093F1008091E8008E7F8093F5
:107BF000E80006DE19C08823B1F490917501923037
:107C000098F48091E800877F8093E8009093710159
:107C1000F7DD80917101882311F084E001C083E0D9
:107C20008EBB16D001C0A7DB8091E80083FF0AC09D
:107C30008091EB0080628093EB008091E800877F69
:107C40008093E8000F900F90CF91DF911F910895DE
:107C500008958EB3882329F08091E80083FF01C046
:107C600044CF0895F999FECF92BD81BDF89A992726
:107C700080B50895262FF999FECF1FBA92BD81BD18
:107C800020BD0FB6F894FA9AF99A0FBE019608959E
:047C9000F894FFCF96
:107C940001021E958A20DCFB120110010000002065
:107CA400EB03F02F00000001000109021B00010199
:107CB4000080320904000000FE01020009210300D3
:107CC40000000C0001040309042003410072006455
:107CD40000750069006E006F00200055006E006F93
:0C7CE40000200044004600550000000095
:040000030000700089
:00000001FF

